{
  "_format": "hh-sol-artifact-1",
  "contractName": "PooCertificateToken",
  "sourceName": "contracts/PooCertificateToken.sol",
  "abi": [
    {
      "inputs": [],
      "stateMutability": "nonpayable",
      "type": "constructor"
    },
    {
      "anonymous": false,
      "inputs": [
        {
          "indexed": true,
          "internalType": "address",
          "name": "owner",
          "type": "address"
        },
        {
          "indexed": true,
          "internalType": "address",
          "name": "approved",
          "type": "address"
        },
        {
          "indexed": true,
          "internalType": "uint256",
          "name": "tokenId",
          "type": "uint256"
        }
      ],
      "name": "Approval",
      "type": "event"
    },
    {
      "anonymous": false,
      "inputs": [
        {
          "indexed": true,
          "internalType": "address",
          "name": "owner",
          "type": "address"
        },
        {
          "indexed": true,
          "internalType": "address",
          "name": "operator",
          "type": "address"
        },
        {
          "indexed": false,
          "internalType": "bool",
          "name": "approved",
          "type": "bool"
        }
      ],
      "name": "ApprovalForAll",
      "type": "event"
    },
    {
      "anonymous": false,
      "inputs": [
        {
          "indexed": true,
          "internalType": "address",
          "name": "to",
          "type": "address"
        },
        {
          "indexed": true,
          "internalType": "uint256",
          "name": "tokenId",
          "type": "uint256"
        }
      ],
      "name": "Attest",
      "type": "event"
    },
    {
      "anonymous": false,
      "inputs": [
        {
          "indexed": true,
          "internalType": "address",
          "name": "previousOwner",
          "type": "address"
        },
        {
          "indexed": true,
          "internalType": "address",
          "name": "newOwner",
          "type": "address"
        }
      ],
      "name": "OwnershipTransferred",
      "type": "event"
    },
    {
      "anonymous": false,
      "inputs": [
        {
          "indexed": true,
          "internalType": "address",
          "name": "to",
          "type": "address"
        },
        {
          "indexed": true,
          "internalType": "uint256",
          "name": "tokenId",
          "type": "uint256"
        }
      ],
      "name": "Revoke",
      "type": "event"
    },
    {
      "anonymous": false,
      "inputs": [
        {
          "indexed": true,
          "internalType": "address",
          "name": "from",
          "type": "address"
        },
        {
          "indexed": true,
          "internalType": "address",
          "name": "to",
          "type": "address"
        },
        {
          "indexed": true,
          "internalType": "uint256",
          "name": "tokenId",
          "type": "uint256"
        }
      ],
      "name": "Transfer",
      "type": "event"
    },
    {
      "inputs": [
        {
          "internalType": "address",
          "name": "to",
          "type": "address"
        },
        {
          "internalType": "uint256",
          "name": "tokenId",
          "type": "uint256"
        }
      ],
      "name": "approve",
      "outputs": [],
      "stateMutability": "nonpayable",
      "type": "function"
    },
    {
      "inputs": [
        {
          "internalType": "address",
          "name": "owner",
          "type": "address"
        }
      ],
      "name": "balanceOf",
      "outputs": [
        {
          "internalType": "uint256",
          "name": "",
          "type": "uint256"
        }
      ],
      "stateMutability": "view",
      "type": "function"
    },
    {
      "inputs": [
        {
          "internalType": "uint256",
          "name": "tokenId",
          "type": "uint256"
        }
      ],
      "name": "burn",
      "outputs": [],
      "stateMutability": "nonpayable",
      "type": "function"
    },
    {
      "inputs": [
        {
          "internalType": "uint256",
          "name": "tokenId",
          "type": "uint256"
        }
      ],
      "name": "getApproved",
      "outputs": [
        {
          "internalType": "address",
          "name": "",
          "type": "address"
        }
      ],
      "stateMutability": "view",
      "type": "function"
    },
    {
      "inputs": [
        {
          "internalType": "address",
          "name": "_user",
          "type": "address"
        }
      ],
      "name": "getTokenIds",
      "outputs": [
        {
          "components": [
            {
              "internalType": "uint256",
              "name": "tokenIds",
              "type": "uint256"
            },
            {
              "internalType": "string",
              "name": "tokenIpfsUri",
              "type": "string"
            }
          ],
          "internalType": "struct PooCertificateToken.nftData[]",
          "name": "",
          "type": "tuple[]"
        }
      ],
      "stateMutability": "view",
      "type": "function"
    },
    {
      "inputs": [
        {
          "internalType": "address",
          "name": "owner",
          "type": "address"
        },
        {
          "internalType": "address",
          "name": "operator",
          "type": "address"
        }
      ],
      "name": "isApprovedForAll",
      "outputs": [
        {
          "internalType": "bool",
          "name": "",
          "type": "bool"
        }
      ],
      "stateMutability": "view",
      "type": "function"
    },
    {
      "inputs": [],
      "name": "name",
      "outputs": [
        {
          "internalType": "string",
          "name": "",
          "type": "string"
        }
      ],
      "stateMutability": "view",
      "type": "function"
    },
    {
      "inputs": [],
      "name": "owner",
      "outputs": [
        {
          "internalType": "address",
          "name": "",
          "type": "address"
        }
      ],
      "stateMutability": "view",
      "type": "function"
    },
    {
      "inputs": [
        {
          "internalType": "uint256",
          "name": "tokenId",
          "type": "uint256"
        }
      ],
      "name": "ownerOf",
      "outputs": [
        {
          "internalType": "address",
          "name": "",
          "type": "address"
        }
      ],
      "stateMutability": "view",
      "type": "function"
    },
    {
      "inputs": [],
      "name": "renounceOwnership",
      "outputs": [],
      "stateMutability": "nonpayable",
      "type": "function"
    },
    {
      "inputs": [
        {
          "internalType": "uint256",
          "name": "tokenId",
          "type": "uint256"
        }
      ],
      "name": "revoke",
      "outputs": [],
      "stateMutability": "nonpayable",
      "type": "function"
    },
    {
      "inputs": [
        {
          "internalType": "address",
          "name": "to",
          "type": "address"
        },
        {
          "internalType": "string",
          "name": "uri",
          "type": "string"
        },
        {
          "internalType": "uint256",
          "name": "_tokenId",
          "type": "uint256"
        }
      ],
      "name": "safeMint",
      "outputs": [],
      "stateMutability": "nonpayable",
      "type": "function"
    },
    {
      "inputs": [
        {
          "internalType": "address",
          "name": "from",
          "type": "address"
        },
        {
          "internalType": "address",
          "name": "to",
          "type": "address"
        },
        {
          "internalType": "uint256",
          "name": "tokenId",
          "type": "uint256"
        }
      ],
      "name": "safeTransferFrom",
      "outputs": [],
      "stateMutability": "nonpayable",
      "type": "function"
    },
    {
      "inputs": [
        {
          "internalType": "address",
          "name": "from",
          "type": "address"
        },
        {
          "internalType": "address",
          "name": "to",
          "type": "address"
        },
        {
          "internalType": "uint256",
          "name": "tokenId",
          "type": "uint256"
        },
        {
          "internalType": "bytes",
          "name": "data",
          "type": "bytes"
        }
      ],
      "name": "safeTransferFrom",
      "outputs": [],
      "stateMutability": "nonpayable",
      "type": "function"
    },
    {
      "inputs": [
        {
          "internalType": "address",
          "name": "operator",
          "type": "address"
        },
        {
          "internalType": "bool",
          "name": "approved",
          "type": "bool"
        }
      ],
      "name": "setApprovalForAll",
      "outputs": [],
      "stateMutability": "nonpayable",
      "type": "function"
    },
    {
      "inputs": [
        {
          "internalType": "address",
          "name": "_to",
          "type": "address"
        },
        {
          "internalType": "string",
          "name": "_uri",
          "type": "string"
        },
        {
          "internalType": "bool",
          "name": "_mint",
          "type": "bool"
        }
      ],
      "name": "storeCertificate",
      "outputs": [],
      "stateMutability": "nonpayable",
      "type": "function"
    },
    {
      "inputs": [
        {
          "internalType": "bytes4",
          "name": "interfaceId",
          "type": "bytes4"
        }
      ],
      "name": "supportsInterface",
      "outputs": [
        {
          "internalType": "bool",
          "name": "",
          "type": "bool"
        }
      ],
      "stateMutability": "view",
      "type": "function"
    },
    {
      "inputs": [],
      "name": "symbol",
      "outputs": [
        {
          "internalType": "string",
          "name": "",
          "type": "string"
        }
      ],
      "stateMutability": "view",
      "type": "function"
    },
    {
      "inputs": [
        {
          "internalType": "uint256",
          "name": "tokenId",
          "type": "uint256"
        }
      ],
      "name": "tokenURI",
      "outputs": [
        {
          "internalType": "string",
          "name": "",
          "type": "string"
        }
      ],
      "stateMutability": "view",
      "type": "function"
    },
    {
      "inputs": [
        {
          "internalType": "address",
          "name": "from",
          "type": "address"
        },
        {
          "internalType": "address",
          "name": "to",
          "type": "address"
        },
        {
          "internalType": "uint256",
          "name": "tokenId",
          "type": "uint256"
        }
      ],
      "name": "transferFrom",
      "outputs": [],
      "stateMutability": "nonpayable",
      "type": "function"
    },
    {
      "inputs": [
        {
          "internalType": "address",
          "name": "newOwner",
          "type": "address"
        }
      ],
      "name": "transferOwnership",
      "outputs": [],
      "stateMutability": "nonpayable",
      "type": "function"
    }
  ],
  "bytecode": "0x60806040523480156200001157600080fd5b506040518060400160405280600f81526020017f506f4f20436572746966696361746500000000000000000000000000000000008152506040518060400160405280600381526020017f506f4f000000000000000000000000000000000000000000000000000000000081525081600090816200008f919062000412565b508060019081620000a1919062000412565b505050620000c4620000b8620000ca60201b60201c565b620000d260201b60201c565b620004f9565b600033905090565b6000600760009054906101000a900473ffffffffffffffffffffffffffffffffffffffff16905081600760006101000a81548173ffffffffffffffffffffffffffffffffffffffff021916908373ffffffffffffffffffffffffffffffffffffffff1602179055508173ffffffffffffffffffffffffffffffffffffffff168173ffffffffffffffffffffffffffffffffffffffff167f8be0079c531659141344cd1fd0a4f28419497f9722a3daafe3b4186f6b6457e060405160405180910390a35050565b600081519050919050565b7f4e487b7100000000000000000000000000000000000000000000000000000000600052604160045260246000fd5b7f4e487b7100000000000000000000000000000000000000000000000000000000600052602260045260246000fd5b600060028204905060018216806200021a57607f821691505b60208210810362000230576200022f620001d2565b5b50919050565b60008190508160005260206000209050919050565b60006020601f8301049050919050565b600082821b905092915050565b6000600883026200029a7fffffffffffffffffffffffffffffffffffffffffffffffffffffffffffffffff826200025b565b620002a686836200025b565b95508019841693508086168417925050509392505050565b6000819050919050565b6000819050919050565b6000620002f3620002ed620002e784620002be565b620002c8565b620002be565b9050919050565b6000819050919050565b6200030f83620002d2565b620003276200031e82620002fa565b84845462000268565b825550505050565b600090565b6200033e6200032f565b6200034b81848462000304565b505050565b5b8181101562000373576200036760008262000334565b60018101905062000351565b5050565b601f821115620003c2576200038c8162000236565b62000397846200024b565b81016020851015620003a7578190505b620003bf620003b6856200024b565b83018262000350565b50505b505050565b600082821c905092915050565b6000620003e760001984600802620003c7565b1980831691505092915050565b6000620004028383620003d4565b9150826002028217905092915050565b6200041d8262000198565b67ffffffffffffffff811115620004395762000438620001a3565b5b62000445825462000201565b6200045282828562000377565b600060209050601f8311600181146200048a576000841562000475578287015190505b620004818582620003f4565b865550620004f1565b601f1984166200049a8662000236565b60005b82811015620004c4578489015182556001820191506020850194506020810190506200049d565b86831015620004e45784890151620004e0601f891682620003d4565b8355505b6001600288020188555050505b505050505050565b6137ac80620005096000396000f3fe608060405234801561001057600080fd5b50600436106101375760003560e01c8063715018a6116100b8578063b88d4fde1161007c578063b88d4fde14610324578063c772745a14610340578063c87b56dd1461035c578063d004b0361461038c578063e985e9c5146103bc578063f2fde38b146103ec57610137565b8063715018a6146102a6578063791d22f7146102b05780638da5cb5b146102cc57806395d89b41146102ea578063a22cb4651461030857610137565b806323b872dd116100ff57806323b872dd146101f257806342842e0e1461020e57806342966c681461022a5780636352211e1461024657806370a082311461027657610137565b806301ffc9a71461013c57806306fdde031461016c578063081812fc1461018a578063095ea7b3146101ba57806320c5429b146101d6575b600080fd5b61015660048036038101906101519190612278565b610408565b60405161016391906122c0565b60405180910390f35b6101746104ea565b604051610181919061236b565b60405180910390f35b6101a4600480360381019061019f91906123c3565b61057c565b6040516101b19190612431565b60405180910390f35b6101d460048036038101906101cf9190612478565b6105c2565b005b6101f060048036038101906101eb91906123c3565b6106d9565b005b61020c600480360381019061020791906124b8565b6106ed565b005b610228600480360381019061022391906124b8565b61074d565b005b610244600480360381019061023f91906123c3565b61076d565b005b610260600480360381019061025b91906123c3565b6107ef565b60405161026d9190612431565b60405180910390f35b610290600480360381019061028b919061250b565b610875565b60405161029d9190612547565b60405180910390f35b6102ae61092c565b005b6102ca60048036038101906102c591906126c3565b610940565b005b6102d4610a15565b6040516102e19190612431565b60405180910390f35b6102f2610a3f565b6040516102ff919061236b565b60405180910390f35b610322600480360381019061031d9190612732565b610ad1565b005b61033e60048036038101906103399190612813565b610ae7565b005b61035a60048036038101906103559190612896565b610b49565b005b610376600480360381019061037191906123c3565b610b62565b604051610383919061236b565b60405180910390f35b6103a660048036038101906103a1919061250b565b610b74565b6040516103b39190612a5d565b60405180910390f35b6103d660048036038101906103d19190612a7f565b610cae565b6040516103e391906122c0565b60405180910390f35b6104066004803603810190610401919061250b565b610d42565b005b60007f80ac58cd000000000000000000000000000000000000000000000000000000007bffffffffffffffffffffffffffffffffffffffffffffffffffffffff1916827bffffffffffffffffffffffffffffffffffffffffffffffffffffffff191614806104d357507f5b5e139f000000000000000000000000000000000000000000000000000000007bffffffffffffffffffffffffffffffffffffffffffffffffffffffff1916827bffffffffffffffffffffffffffffffffffffffffffffffffffffffff1916145b806104e357506104e282610dc5565b5b9050919050565b6060600080546104f990612aee565b80601f016020809104026020016040519081016040528092919081815260200182805461052590612aee565b80156105725780601f1061054757610100808354040283529160200191610572565b820191906000526020600020905b81548152906001019060200180831161055557829003601f168201915b5050505050905090565b600061058782610e2f565b6004600083815260200190815260200160002060009054906101000a900473ffffffffffffffffffffffffffffffffffffffff169050919050565b60006105cd826107ef565b90508073ffffffffffffffffffffffffffffffffffffffff168373ffffffffffffffffffffffffffffffffffffffff160361063d576040517f08c379a000000000000000000000000000000000000000000000000000000000815260040161063490612b91565b60405180910390fd5b8073ffffffffffffffffffffffffffffffffffffffff1661065c610e7a565b73ffffffffffffffffffffffffffffffffffffffff16148061068b575061068a81610685610e7a565b610cae565b5b6106ca576040517f08c379a00000000000000000000000000000000000000000000000000000000081526004016106c190612c23565b60405180910390fd5b6106d48383610e82565b505050565b6106e1610f3b565b6106ea81610fb9565b50565b6106fe6106f8610e7a565b82610fc5565b61073d576040517f08c379a000000000000000000000000000000000000000000000000000000000815260040161073490612cb5565b60405180910390fd5b61074883838361105a565b505050565b61076883838360405180602001604052806000815250610ae7565b505050565b3373ffffffffffffffffffffffffffffffffffffffff1661078d826107ef565b73ffffffffffffffffffffffffffffffffffffffff16146107e3576040517f08c379a00000000000000000000000000000000000000000000000000000000081526004016107da90612d47565b60405180910390fd5b6107ec81610fb9565b50565b6000806107fb83611353565b9050600073ffffffffffffffffffffffffffffffffffffffff168173ffffffffffffffffffffffffffffffffffffffff160361086c576040517f08c379a000000000000000000000000000000000000000000000000000000000815260040161086390612db3565b60405180910390fd5b80915050919050565b60008073ffffffffffffffffffffffffffffffffffffffff168273ffffffffffffffffffffffffffffffffffffffff16036108e5576040517f08c379a00000000000000000000000000000000000000000000000000000000081526004016108dc90612e45565b60405180910390fd5b600360008373ffffffffffffffffffffffffffffffffffffffff1673ffffffffffffffffffffffffffffffffffffffff168152602001908152602001600020549050919050565b610934610f3b565b61093e6000611390565b565b600061094c6008611456565b90506109586008611464565b60011515821515036109705761096f848483610b49565b5b600960008573ffffffffffffffffffffffffffffffffffffffff1673ffffffffffffffffffffffffffffffffffffffff1681526020019081526020016000206040518060400160405280838152602001858152509080600181540180825580915050600190039060005260206000209060020201600090919091909150600082015181600001556020820151816001019081610a0c9190613011565b50505050505050565b6000600760009054906101000a900473ffffffffffffffffffffffffffffffffffffffff16905090565b606060018054610a4e90612aee565b80601f0160208091040260200160405190810160405280929190818152602001828054610a7a90612aee565b8015610ac75780601f10610a9c57610100808354040283529160200191610ac7565b820191906000526020600020905b815481529060010190602001808311610aaa57829003601f168201915b5050505050905090565b610ae3610adc610e7a565b838361147a565b5050565b610af8610af2610e7a565b83610fc5565b610b37576040517f08c379a0000000000000000000000000000000000000000000000000000000008152600401610b2e90612cb5565b60405180910390fd5b610b43848484846115e6565b50505050565b610b538382611642565b610b5d8183611660565b505050565b6060610b6d826116cd565b9050919050565b6060600960008373ffffffffffffffffffffffffffffffffffffffff1673ffffffffffffffffffffffffffffffffffffffff168152602001908152602001600020805480602002602001604051908101604052809291908181526020016000905b82821015610ca3578382906000526020600020906002020160405180604001604052908160008201548152602001600182018054610c1290612aee565b80601f0160208091040260200160405190810160405280929190818152602001828054610c3e90612aee565b8015610c8b5780601f10610c6057610100808354040283529160200191610c8b565b820191906000526020600020905b815481529060010190602001808311610c6e57829003601f168201915b50505050508152505081526020019060010190610bd5565b505050509050919050565b6000600560008473ffffffffffffffffffffffffffffffffffffffff1673ffffffffffffffffffffffffffffffffffffffff16815260200190815260200160002060008373ffffffffffffffffffffffffffffffffffffffff1673ffffffffffffffffffffffffffffffffffffffff16815260200190815260200160002060009054906101000a900460ff16905092915050565b610d4a610f3b565b600073ffffffffffffffffffffffffffffffffffffffff168173ffffffffffffffffffffffffffffffffffffffff1603610db9576040517f08c379a0000000000000000000000000000000000000000000000000000000008152600401610db090613155565b60405180910390fd5b610dc281611390565b50565b60007f01ffc9a7000000000000000000000000000000000000000000000000000000007bffffffffffffffffffffffffffffffffffffffffffffffffffffffff1916827bffffffffffffffffffffffffffffffffffffffffffffffffffffffff1916149050919050565b610e38816117df565b610e77576040517f08c379a0000000000000000000000000000000000000000000000000000000008152600401610e6e90612db3565b60405180910390fd5b50565b600033905090565b816004600083815260200190815260200160002060006101000a81548173ffffffffffffffffffffffffffffffffffffffff021916908373ffffffffffffffffffffffffffffffffffffffff160217905550808273ffffffffffffffffffffffffffffffffffffffff16610ef5836107ef565b73ffffffffffffffffffffffffffffffffffffffff167f8c5be1e5ebec7d5bd14f71427d1e84f3dd0314c0f7b2291e5b200ac8c7c3b92560405160405180910390a45050565b610f43610e7a565b73ffffffffffffffffffffffffffffffffffffffff16610f61610a15565b73ffffffffffffffffffffffffffffffffffffffff1614610fb7576040517f08c379a0000000000000000000000000000000000000000000000000000000008152600401610fae906131c1565b60405180910390fd5b565b610fc281611820565b50565b600080610fd1836107ef565b90508073ffffffffffffffffffffffffffffffffffffffff168473ffffffffffffffffffffffffffffffffffffffff16148061101357506110128185610cae565b5b8061105157508373ffffffffffffffffffffffffffffffffffffffff166110398461057c565b73ffffffffffffffffffffffffffffffffffffffff16145b91505092915050565b8273ffffffffffffffffffffffffffffffffffffffff1661107a826107ef565b73ffffffffffffffffffffffffffffffffffffffff16146110d0576040517f08c379a00000000000000000000000000000000000000000000000000000000081526004016110c790613253565b60405180910390fd5b600073ffffffffffffffffffffffffffffffffffffffff168273ffffffffffffffffffffffffffffffffffffffff160361113f576040517f08c379a0000000000000000000000000000000000000000000000000000000008152600401611136906132e5565b60405180910390fd5b61114c8383836001611873565b8273ffffffffffffffffffffffffffffffffffffffff1661116c826107ef565b73ffffffffffffffffffffffffffffffffffffffff16146111c2576040517f08c379a00000000000000000000000000000000000000000000000000000000081526004016111b990613253565b60405180910390fd5b6004600082815260200190815260200160002060006101000a81549073ffffffffffffffffffffffffffffffffffffffff02191690556001600360008573ffffffffffffffffffffffffffffffffffffffff1673ffffffffffffffffffffffffffffffffffffffff168152602001908152602001600020600082825403925050819055506001600360008473ffffffffffffffffffffffffffffffffffffffff1673ffffffffffffffffffffffffffffffffffffffff16815260200190815260200160002060008282540192505081905550816002600083815260200190815260200160002060006101000a81548173ffffffffffffffffffffffffffffffffffffffff021916908373ffffffffffffffffffffffffffffffffffffffff160217905550808273ffffffffffffffffffffffffffffffffffffffff168473ffffffffffffffffffffffffffffffffffffffff167fddf252ad1be2c89b69c2b068fc378daa952ba7f163c4a11628f55a4df523b3ef60405160405180910390a461134e8383836001611999565b505050565b60006002600083815260200190815260200160002060009054906101000a900473ffffffffffffffffffffffffffffffffffffffff169050919050565b6000600760009054906101000a900473ffffffffffffffffffffffffffffffffffffffff16905081600760006101000a81548173ffffffffffffffffffffffffffffffffffffffff021916908373ffffffffffffffffffffffffffffffffffffffff1602179055508173ffffffffffffffffffffffffffffffffffffffff168173ffffffffffffffffffffffffffffffffffffffff167f8be0079c531659141344cd1fd0a4f28419497f9722a3daafe3b4186f6b6457e060405160405180910390a35050565b600081600001549050919050565b6001816000016000828254019250508190555050565b8173ffffffffffffffffffffffffffffffffffffffff168373ffffffffffffffffffffffffffffffffffffffff16036114e8576040517f08c379a00000000000000000000000000000000000000000000000000000000081526004016114df90613351565b60405180910390fd5b80600560008573ffffffffffffffffffffffffffffffffffffffff1673ffffffffffffffffffffffffffffffffffffffff16815260200190815260200160002060008473ffffffffffffffffffffffffffffffffffffffff1673ffffffffffffffffffffffffffffffffffffffff16815260200190815260200160002060006101000a81548160ff0219169083151502179055508173ffffffffffffffffffffffffffffffffffffffff168373ffffffffffffffffffffffffffffffffffffffff167f17307eab39ab6107e8899845ad3d59bd9653f200f220920489ca2b5937696c31836040516115d991906122c0565b60405180910390a3505050565b6115f184848461105a565b6115fd8484848461199f565b61163c576040517f08c379a0000000000000000000000000000000000000000000000000000000008152600401611633906133e3565b60405180910390fd5b50505050565b61165c828260405180602001604052806000815250611b26565b5050565b611669826117df565b6116a8576040517f08c379a000000000000000000000000000000000000000000000000000000000815260040161169f90613475565b60405180910390fd5b806006600084815260200190815260200160002090816116c89190613011565b505050565b60606116d882610e2f565b60006006600084815260200190815260200160002080546116f890612aee565b80601f016020809104026020016040519081016040528092919081815260200182805461172490612aee565b80156117715780601f1061174657610100808354040283529160200191611771565b820191906000526020600020905b81548152906001019060200180831161175457829003601f168201915b505050505090506000611782611b81565b905060008151036117975781925050506117da565b6000825111156117cc5780826040516020016117b49291906134d1565b604051602081830303815290604052925050506117da565b6117d584611b98565b925050505b919050565b60008073ffffffffffffffffffffffffffffffffffffffff1661180183611353565b73ffffffffffffffffffffffffffffffffffffffff1614159050919050565b61182981611c00565b600060066000838152602001908152602001600020805461184990612aee565b9050146118705760066000828152602001908152602001600020600061186f91906121af565b5b50565b600181111561199357600073ffffffffffffffffffffffffffffffffffffffff168473ffffffffffffffffffffffffffffffffffffffff16146119075780600360008673ffffffffffffffffffffffffffffffffffffffff1673ffffffffffffffffffffffffffffffffffffffff16815260200190815260200160002060008282546118ff9190613524565b925050819055505b600073ffffffffffffffffffffffffffffffffffffffff168373ffffffffffffffffffffffffffffffffffffffff16146119925780600360008573ffffffffffffffffffffffffffffffffffffffff1673ffffffffffffffffffffffffffffffffffffffff168152602001908152602001600020600082825461198a9190613558565b925050819055505b5b50505050565b50505050565b60006119c08473ffffffffffffffffffffffffffffffffffffffff16611d4e565b15611b19578373ffffffffffffffffffffffffffffffffffffffff1663150b7a026119e9610e7a565b8786866040518563ffffffff1660e01b8152600401611a0b94939291906135e1565b6020604051808303816000875af1925050508015611a4757506040513d601f19601f82011682018060405250810190611a449190613642565b60015b611ac9573d8060008114611a77576040519150601f19603f3d011682016040523d82523d6000602084013e611a7c565b606091505b506000815103611ac1576040517f08c379a0000000000000000000000000000000000000000000000000000000008152600401611ab8906133e3565b60405180910390fd5b805181602001fd5b63150b7a0260e01b7bffffffffffffffffffffffffffffffffffffffffffffffffffffffff1916817bffffffffffffffffffffffffffffffffffffffffffffffffffffffff191614915050611b1e565b600190505b949350505050565b611b308383611d71565b611b3d600084848461199f565b611b7c576040517f08c379a0000000000000000000000000000000000000000000000000000000008152600401611b73906133e3565b60405180910390fd5b505050565b606060405180602001604052806000815250905090565b6060611ba382610e2f565b6000611bad611b81565b90506000815111611bcd5760405180602001604052806000815250611bf8565b80611bd784611f8e565b604051602001611be89291906134d1565b6040516020818303038152906040525b915050919050565b6000611c0b826107ef565b9050611c1b816000846001611873565b611c24826107ef565b90506004600083815260200190815260200160002060006101000a81549073ffffffffffffffffffffffffffffffffffffffff02191690556001600360008373ffffffffffffffffffffffffffffffffffffffff1673ffffffffffffffffffffffffffffffffffffffff168152602001908152602001600020600082825403925050819055506002600083815260200190815260200160002060006101000a81549073ffffffffffffffffffffffffffffffffffffffff021916905581600073ffffffffffffffffffffffffffffffffffffffff168273ffffffffffffffffffffffffffffffffffffffff167fddf252ad1be2c89b69c2b068fc378daa952ba7f163c4a11628f55a4df523b3ef60405160405180910390a4611d4a816000846001611999565b5050565b6000808273ffffffffffffffffffffffffffffffffffffffff163b119050919050565b600073ffffffffffffffffffffffffffffffffffffffff168273ffffffffffffffffffffffffffffffffffffffff1603611de0576040517f08c379a0000000000000000000000000000000000000000000000000000000008152600401611dd7906136bb565b60405180910390fd5b611de9816117df565b15611e29576040517f08c379a0000000000000000000000000000000000000000000000000000000008152600401611e2090613727565b60405180910390fd5b611e37600083836001611873565b611e40816117df565b15611e80576040517f08c379a0000000000000000000000000000000000000000000000000000000008152600401611e7790613727565b60405180910390fd5b6001600360008473ffffffffffffffffffffffffffffffffffffffff1673ffffffffffffffffffffffffffffffffffffffff16815260200190815260200160002060008282540192505081905550816002600083815260200190815260200160002060006101000a81548173ffffffffffffffffffffffffffffffffffffffff021916908373ffffffffffffffffffffffffffffffffffffffff160217905550808273ffffffffffffffffffffffffffffffffffffffff16600073ffffffffffffffffffffffffffffffffffffffff167fddf252ad1be2c89b69c2b068fc378daa952ba7f163c4a11628f55a4df523b3ef60405160405180910390a4611f8a600083836001611999565b5050565b606060006001611f9d8461205c565b01905060008167ffffffffffffffff811115611fbc57611fbb61256c565b5b6040519080825280601f01601f191660200182016040528015611fee5781602001600182028036833780820191505090505b509050600082602001820190505b600115612051578080600190039150507f3031323334353637383961626364656600000000000000000000000000000000600a86061a8153600a858161204557612044613747565b5b04945060008503611ffc575b819350505050919050565b600080600090507a184f03e93ff9f4daa797ed6e38ed64bf6a1f01000000000000000083106120ba577a184f03e93ff9f4daa797ed6e38ed64bf6a1f01000000000000000083816120b0576120af613747565b5b0492506040810190505b6d04ee2d6d415b85acef810000000083106120f7576d04ee2d6d415b85acef810000000083816120ed576120ec613747565b5b0492506020810190505b662386f26fc10000831061212657662386f26fc10000838161211c5761211b613747565b5b0492506010810190505b6305f5e100831061214f576305f5e100838161214557612144613747565b5b0492506008810190505b612710831061217457612710838161216a57612169613747565b5b0492506004810190505b60648310612197576064838161218d5761218c613747565b5b0492506002810190505b600a83106121a6576001810190505b80915050919050565b5080546121bb90612aee565b6000825580601f106121cd57506121ec565b601f0160209004906000526020600020908101906121eb91906121ef565b5b50565b5b808211156122085760008160009055506001016121f0565b5090565b6000604051905090565b600080fd5b600080fd5b60007fffffffff0000000000000000000000000000000000000000000000000000000082169050919050565b61225581612220565b811461226057600080fd5b50565b6000813590506122728161224c565b92915050565b60006020828403121561228e5761228d612216565b5b600061229c84828501612263565b91505092915050565b60008115159050919050565b6122ba816122a5565b82525050565b60006020820190506122d560008301846122b1565b92915050565b600081519050919050565b600082825260208201905092915050565b60005b838110156123155780820151818401526020810190506122fa565b60008484015250505050565b6000601f19601f8301169050919050565b600061233d826122db565b61234781856122e6565b93506123578185602086016122f7565b61236081612321565b840191505092915050565b600060208201905081810360008301526123858184612332565b905092915050565b6000819050919050565b6123a08161238d565b81146123ab57600080fd5b50565b6000813590506123bd81612397565b92915050565b6000602082840312156123d9576123d8612216565b5b60006123e7848285016123ae565b91505092915050565b600073ffffffffffffffffffffffffffffffffffffffff82169050919050565b600061241b826123f0565b9050919050565b61242b81612410565b82525050565b60006020820190506124466000830184612422565b92915050565b61245581612410565b811461246057600080fd5b50565b6000813590506124728161244c565b92915050565b6000806040838503121561248f5761248e612216565b5b600061249d85828601612463565b92505060206124ae858286016123ae565b9150509250929050565b6000806000606084860312156124d1576124d0612216565b5b60006124df86828701612463565b93505060206124f086828701612463565b9250506040612501868287016123ae565b9150509250925092565b60006020828403121561252157612520612216565b5b600061252f84828501612463565b91505092915050565b6125418161238d565b82525050565b600060208201905061255c6000830184612538565b92915050565b600080fd5b600080fd5b7f4e487b7100000000000000000000000000000000000000000000000000000000600052604160045260246000fd5b6125a482612321565b810181811067ffffffffffffffff821117156125c3576125c261256c565b5b80604052505050565b60006125d661220c565b90506125e2828261259b565b919050565b600067ffffffffffffffff8211156126025761260161256c565b5b61260b82612321565b9050602081019050919050565b82818337600083830152505050565b600061263a612635846125e7565b6125cc565b90508281526020810184848401111561265657612655612567565b5b612661848285612618565b509392505050565b600082601f83011261267e5761267d612562565b5b813561268e848260208601612627565b91505092915050565b6126a0816122a5565b81146126ab57600080fd5b50565b6000813590506126bd81612697565b92915050565b6000806000606084860312156126dc576126db612216565b5b60006126ea86828701612463565b935050602084013567ffffffffffffffff81111561270b5761270a61221b565b5b61271786828701612669565b9250506040612728868287016126ae565b9150509250925092565b6000806040838503121561274957612748612216565b5b600061275785828601612463565b9250506020612768858286016126ae565b9150509250929050565b600067ffffffffffffffff82111561278d5761278c61256c565b5b61279682612321565b9050602081019050919050565b60006127b66127b184612772565b6125cc565b9050828152602081018484840111156127d2576127d1612567565b5b6127dd848285612618565b509392505050565b600082601f8301126127fa576127f9612562565b5b813561280a8482602086016127a3565b91505092915050565b6000806000806080858703121561282d5761282c612216565b5b600061283b87828801612463565b945050602061284c87828801612463565b935050604061285d878288016123ae565b925050606085013567ffffffffffffffff81111561287e5761287d61221b565b5b61288a878288016127e5565b91505092959194509250565b6000806000606084860312156128af576128ae612216565b5b60006128bd86828701612463565b935050602084013567ffffffffffffffff8111156128de576128dd61221b565b5b6128ea86828701612669565b92505060406128fb868287016123ae565b9150509250925092565b600081519050919050565b600082825260208201905092915050565b6000819050602082019050919050565b61293a8161238d565b82525050565b600082825260208201905092915050565b600061295c826122db565b6129668185612940565b93506129768185602086016122f7565b61297f81612321565b840191505092915050565b60006040830160008301516129a26000860182612931565b50602083015184820360208601526129ba8282612951565b9150508091505092915050565b60006129d3838361298a565b905092915050565b6000602082019050919050565b60006129f382612905565b6129fd8185612910565b935083602082028501612a0f85612921565b8060005b85811015612a4b5784840389528151612a2c85826129c7565b9450612a37836129db565b925060208a01995050600181019050612a13565b50829750879550505050505092915050565b60006020820190508181036000830152612a7781846129e8565b905092915050565b60008060408385031215612a9657612a95612216565b5b6000612aa485828601612463565b9250506020612ab585828601612463565b9150509250929050565b7f4e487b7100000000000000000000000000000000000000000000000000000000600052602260045260246000fd5b60006002820490506001821680612b0657607f821691505b602082108103612b1957612b18612abf565b5b50919050565b7f4552433732313a20617070726f76616c20746f2063757272656e74206f776e6560008201527f7200000000000000000000000000000000000000000000000000000000000000602082015250565b6000612b7b6021836122e6565b9150612b8682612b1f565b604082019050919050565b60006020820190508181036000830152612baa81612b6e565b9050919050565b7f4552433732313a20617070726f76652063616c6c6572206973206e6f7420746f60008201527f6b656e206f776e6572206f7220617070726f76656420666f7220616c6c000000602082015250565b6000612c0d603d836122e6565b9150612c1882612bb1565b604082019050919050565b60006020820190508181036000830152612c3c81612c00565b9050919050565b7f4552433732313a2063616c6c6572206973206e6f7420746f6b656e206f776e6560008201527f72206f7220617070726f76656400000000000000000000000000000000000000602082015250565b6000612c9f602d836122e6565b9150612caa82612c43565b604082019050919050565b60006020820190508181036000830152612cce81612c92565b9050919050565b7f4f6e6c79206f776e6572206f662074686520746f6b656e2063616e206275726e60008201527f2069740000000000000000000000000000000000000000000000000000000000602082015250565b6000612d316023836122e6565b9150612d3c82612cd5565b604082019050919050565b60006020820190508181036000830152612d6081612d24565b9050919050565b7f4552433732313a20696e76616c696420746f6b656e2049440000000000000000600082015250565b6000612d9d6018836122e6565b9150612da882612d67565b602082019050919050565b60006020820190508181036000830152612dcc81612d90565b9050919050565b7f4552433732313a2061646472657373207a65726f206973206e6f74206120766160008201527f6c6964206f776e65720000000000000000000000000000000000000000000000602082015250565b6000612e2f6029836122e6565b9150612e3a82612dd3565b604082019050919050565b60006020820190508181036000830152612e5e81612e22565b9050919050565b60008190508160005260206000209050919050565b60006020601f8301049050919050565b600082821b905092915050565b600060088302612ec77fffffffffffffffffffffffffffffffffffffffffffffffffffffffffffffffff82612e8a565b612ed18683612e8a565b95508019841693508086168417925050509392505050565b6000819050919050565b6000612f0e612f09612f048461238d565b612ee9565b61238d565b9050919050565b6000819050919050565b612f2883612ef3565b612f3c612f3482612f15565b848454612e97565b825550505050565b600090565b612f51612f44565b612f5c818484612f1f565b505050565b5b81811015612f8057612f75600082612f49565b600181019050612f62565b5050565b601f821115612fc557612f9681612e65565b612f9f84612e7a565b81016020851015612fae578190505b612fc2612fba85612e7a565b830182612f61565b50505b505050565b600082821c905092915050565b6000612fe860001984600802612fca565b1980831691505092915050565b60006130018383612fd7565b9150826002028217905092915050565b61301a826122db565b67ffffffffffffffff8111156130335761303261256c565b5b61303d8254612aee565b613048828285612f84565b600060209050601f83116001811461307b5760008415613069578287015190505b6130738582612ff5565b8655506130db565b601f19841661308986612e65565b60005b828110156130b15784890151825560018201915060208501945060208101905061308c565b868310156130ce57848901516130ca601f891682612fd7565b8355505b6001600288020188555050505b505050505050565b7f4f776e61626c653a206e6577206f776e657220697320746865207a65726f206160008201527f6464726573730000000000000000000000000000000000000000000000000000602082015250565b600061313f6026836122e6565b915061314a826130e3565b604082019050919050565b6000602082019050818103600083015261316e81613132565b9050919050565b7f4f776e61626c653a2063616c6c6572206973206e6f7420746865206f776e6572600082015250565b60006131ab6020836122e6565b91506131b682613175565b602082019050919050565b600060208201905081810360008301526131da8161319e565b9050919050565b7f4552433732313a207472616e736665722066726f6d20696e636f72726563742060008201527f6f776e6572000000000000000000000000000000000000000000000000000000602082015250565b600061323d6025836122e6565b9150613248826131e1565b604082019050919050565b6000602082019050818103600083015261326c81613230565b9050919050565b7f4552433732313a207472616e7366657220746f20746865207a65726f2061646460008201527f7265737300000000000000000000000000000000000000000000000000000000602082015250565b60006132cf6024836122e6565b91506132da82613273565b604082019050919050565b600060208201905081810360008301526132fe816132c2565b9050919050565b7f4552433732313a20617070726f766520746f2063616c6c657200000000000000600082015250565b600061333b6019836122e6565b915061334682613305565b602082019050919050565b6000602082019050818103600083015261336a8161332e565b9050919050565b7f4552433732313a207472616e7366657220746f206e6f6e20455243373231526560008201527f63656976657220696d706c656d656e7465720000000000000000000000000000602082015250565b60006133cd6032836122e6565b91506133d882613371565b604082019050919050565b600060208201905081810360008301526133fc816133c0565b9050919050565b7f45524337323155524953746f726167653a2055524920736574206f66206e6f6e60008201527f6578697374656e7420746f6b656e000000000000000000000000000000000000602082015250565b600061345f602e836122e6565b915061346a82613403565b604082019050919050565b6000602082019050818103600083015261348e81613452565b9050919050565b600081905092915050565b60006134ab826122db565b6134b58185613495565b93506134c58185602086016122f7565b80840191505092915050565b60006134dd82856134a0565b91506134e982846134a0565b91508190509392505050565b7f4e487b7100000000000000000000000000000000000000000000000000000000600052601160045260246000fd5b600061352f8261238d565b915061353a8361238d565b9250828203905081811115613552576135516134f5565b5b92915050565b60006135638261238d565b915061356e8361238d565b9250828201905080821115613586576135856134f5565b5b92915050565b600081519050919050565b600082825260208201905092915050565b60006135b38261358c565b6135bd8185613597565b93506135cd8185602086016122f7565b6135d681612321565b840191505092915050565b60006080820190506135f66000830187612422565b6136036020830186612422565b6136106040830185612538565b818103606083015261362281846135a8565b905095945050505050565b60008151905061363c8161224c565b92915050565b60006020828403121561365857613657612216565b5b60006136668482850161362d565b91505092915050565b7f4552433732313a206d696e7420746f20746865207a65726f2061646472657373600082015250565b60006136a56020836122e6565b91506136b08261366f565b602082019050919050565b600060208201905081810360008301526136d481613698565b9050919050565b7f4552433732313a20746f6b656e20616c7265616479206d696e74656400000000600082015250565b6000613711601c836122e6565b915061371c826136db565b602082019050919050565b6000602082019050818103600083015261374081613704565b9050919050565b7f4e487b7100000000000000000000000000000000000000000000000000000000600052601260045260246000fdfea2646970667358221220c740724f30e71c6ede65a573bfba25ab1bb8fd6827dc57ea9de67244aa300f0264736f6c63430008110033",
  "linkReferences": {},
  "deployedLinkReferences": {}
}