{
  "_format": "hh-sol-artifact-1",
  "contractName": "Poo",
  "sourceName": "contracts/Poo.sol",
  "abi": [
    {
      "anonymous": false,
      "inputs": [
        {
          "indexed": true,
          "internalType": "address",
          "name": "owner",
          "type": "address"
        },
        {
          "indexed": true,
          "internalType": "address",
          "name": "approved",
          "type": "address"
        },
        {
          "indexed": true,
          "internalType": "uint256",
          "name": "tokenId",
          "type": "uint256"
        }
      ],
      "name": "Approval",
      "type": "event"
    },
    {
      "anonymous": false,
      "inputs": [
        {
          "indexed": true,
          "internalType": "address",
          "name": "owner",
          "type": "address"
        },
        {
          "indexed": true,
          "internalType": "address",
          "name": "operator",
          "type": "address"
        },
        {
          "indexed": false,
          "internalType": "bool",
          "name": "approved",
          "type": "bool"
        }
      ],
      "name": "ApprovalForAll",
      "type": "event"
    },
    {
      "anonymous": false,
      "inputs": [
        {
          "indexed": true,
          "internalType": "address",
          "name": "to",
          "type": "address"
        },
        {
          "indexed": true,
          "internalType": "uint256",
          "name": "tokenId",
          "type": "uint256"
        }
      ],
      "name": "Attest",
      "type": "event"
    },
    {
      "anonymous": false,
      "inputs": [
        {
          "indexed": true,
          "internalType": "address",
          "name": "previousOwner",
          "type": "address"
        },
        {
          "indexed": true,
          "internalType": "address",
          "name": "newOwner",
          "type": "address"
        }
      ],
      "name": "OwnershipTransferred",
      "type": "event"
    },
    {
      "anonymous": false,
      "inputs": [
        {
          "indexed": true,
          "internalType": "address",
          "name": "to",
          "type": "address"
        },
        {
          "indexed": true,
          "internalType": "uint256",
          "name": "tokenId",
          "type": "uint256"
        }
      ],
      "name": "Revoke",
      "type": "event"
    },
    {
      "anonymous": false,
      "inputs": [
        {
          "indexed": true,
          "internalType": "address",
          "name": "from",
          "type": "address"
        },
        {
          "indexed": true,
          "internalType": "address",
          "name": "to",
          "type": "address"
        },
        {
          "indexed": true,
          "internalType": "uint256",
          "name": "tokenId",
          "type": "uint256"
        }
      ],
      "name": "Transfer",
      "type": "event"
    },
    {
      "inputs": [
        {
          "internalType": "string",
          "name": "_profile_url",
          "type": "string"
        }
      ],
      "name": "UpdateProfileUrl",
      "outputs": [],
      "stateMutability": "nonpayable",
      "type": "function"
    },
    {
      "inputs": [
        {
          "internalType": "string",
          "name": "_name",
          "type": "string"
        }
      ],
      "name": "Updatename",
      "outputs": [],
      "stateMutability": "nonpayable",
      "type": "function"
    },
    {
      "inputs": [
        {
          "internalType": "address",
          "name": "to",
          "type": "address"
        },
        {
          "internalType": "uint256",
          "name": "tokenId",
          "type": "uint256"
        }
      ],
      "name": "approve",
      "outputs": [],
      "stateMutability": "nonpayable",
      "type": "function"
    },
    {
      "inputs": [
        {
          "internalType": "address",
          "name": "owner",
          "type": "address"
        }
      ],
      "name": "balanceOf",
      "outputs": [
        {
          "internalType": "uint256",
          "name": "",
          "type": "uint256"
        }
      ],
      "stateMutability": "view",
      "type": "function"
    },
    {
      "inputs": [
        {
          "internalType": "uint256",
          "name": "tokenId",
          "type": "uint256"
        }
      ],
      "name": "burn",
      "outputs": [],
      "stateMutability": "nonpayable",
      "type": "function"
    },
    {
      "inputs": [
        {
          "internalType": "uint256",
          "name": "tokenId",
          "type": "uint256"
        }
      ],
      "name": "getApproved",
      "outputs": [
        {
          "internalType": "address",
          "name": "",
          "type": "address"
        }
      ],
      "stateMutability": "view",
      "type": "function"
    },
    {
      "inputs": [
        {
          "internalType": "address",
          "name": "_user",
          "type": "address"
        }
      ],
      "name": "getTokenIds",
      "outputs": [
        {
          "components": [
            {
              "internalType": "uint256",
              "name": "tokenIds",
              "type": "uint256"
            },
            {
              "internalType": "string",
              "name": "tokenIpfsUri",
              "type": "string"
            }
          ],
          "internalType": "struct PooCertificateToken.nftData[]",
          "name": "",
          "type": "tuple[]"
        }
      ],
      "stateMutability": "view",
      "type": "function"
    },
    {
      "inputs": [],
      "name": "getUser",
      "outputs": [
        {
          "components": [
            {
              "internalType": "string",
              "name": "name",
              "type": "string"
            },
            {
              "internalType": "string",
              "name": "email",
              "type": "string"
            },
            {
              "internalType": "string",
              "name": "profile_url",
              "type": "string"
            }
          ],
          "internalType": "struct Poo.user",
          "name": "",
          "type": "tuple"
        }
      ],
      "stateMutability": "view",
      "type": "function"
    },
    {
      "inputs": [
        {
          "internalType": "address",
          "name": "owner",
          "type": "address"
        },
        {
          "internalType": "address",
          "name": "operator",
          "type": "address"
        }
      ],
      "name": "isApprovedForAll",
      "outputs": [
        {
          "internalType": "bool",
          "name": "",
          "type": "bool"
        }
      ],
      "stateMutability": "view",
      "type": "function"
    },
    {
      "inputs": [],
      "name": "name",
      "outputs": [
        {
          "internalType": "string",
          "name": "",
          "type": "string"
        }
      ],
      "stateMutability": "view",
      "type": "function"
    },
    {
      "inputs": [],
      "name": "owner",
      "outputs": [
        {
          "internalType": "address",
          "name": "",
          "type": "address"
        }
      ],
      "stateMutability": "view",
      "type": "function"
    },
    {
      "inputs": [
        {
          "internalType": "uint256",
          "name": "tokenId",
          "type": "uint256"
        }
      ],
      "name": "ownerOf",
      "outputs": [
        {
          "internalType": "address",
          "name": "",
          "type": "address"
        }
      ],
      "stateMutability": "view",
      "type": "function"
    },
    {
      "inputs": [
        {
          "internalType": "string",
          "name": "_name",
          "type": "string"
        },
        {
          "internalType": "string",
          "name": "_email",
          "type": "string"
        },
        {
          "internalType": "string",
          "name": "_profile_url",
          "type": "string"
        }
      ],
      "name": "registerUser",
      "outputs": [],
      "stateMutability": "nonpayable",
      "type": "function"
    },
    {
      "inputs": [],
      "name": "renounceOwnership",
      "outputs": [],
      "stateMutability": "nonpayable",
      "type": "function"
    },
    {
      "inputs": [
        {
          "internalType": "uint256",
          "name": "tokenId",
          "type": "uint256"
        }
      ],
      "name": "revoke",
      "outputs": [],
      "stateMutability": "nonpayable",
      "type": "function"
    },
    {
      "inputs": [
        {
          "internalType": "address",
          "name": "to",
          "type": "address"
        },
        {
          "internalType": "string",
          "name": "uri",
          "type": "string"
        },
        {
          "internalType": "uint256",
          "name": "_tokenId",
          "type": "uint256"
        }
      ],
      "name": "safeMint",
      "outputs": [],
      "stateMutability": "nonpayable",
      "type": "function"
    },
    {
      "inputs": [
        {
          "internalType": "address",
          "name": "from",
          "type": "address"
        },
        {
          "internalType": "address",
          "name": "to",
          "type": "address"
        },
        {
          "internalType": "uint256",
          "name": "tokenId",
          "type": "uint256"
        }
      ],
      "name": "safeTransferFrom",
      "outputs": [],
      "stateMutability": "nonpayable",
      "type": "function"
    },
    {
      "inputs": [
        {
          "internalType": "address",
          "name": "from",
          "type": "address"
        },
        {
          "internalType": "address",
          "name": "to",
          "type": "address"
        },
        {
          "internalType": "uint256",
          "name": "tokenId",
          "type": "uint256"
        },
        {
          "internalType": "bytes",
          "name": "data",
          "type": "bytes"
        }
      ],
      "name": "safeTransferFrom",
      "outputs": [],
      "stateMutability": "nonpayable",
      "type": "function"
    },
    {
      "inputs": [
        {
          "internalType": "address",
          "name": "operator",
          "type": "address"
        },
        {
          "internalType": "bool",
          "name": "approved",
          "type": "bool"
        }
      ],
      "name": "setApprovalForAll",
      "outputs": [],
      "stateMutability": "nonpayable",
      "type": "function"
    },
    {
      "inputs": [
        {
          "internalType": "address",
          "name": "_to",
          "type": "address"
        },
        {
          "internalType": "string",
          "name": "_uri",
          "type": "string"
        },
        {
          "internalType": "bool",
          "name": "_mint",
          "type": "bool"
        }
      ],
      "name": "storeCertificate",
      "outputs": [],
      "stateMutability": "nonpayable",
      "type": "function"
    },
    {
      "inputs": [
        {
          "internalType": "bytes4",
          "name": "interfaceId",
          "type": "bytes4"
        }
      ],
      "name": "supportsInterface",
      "outputs": [
        {
          "internalType": "bool",
          "name": "",
          "type": "bool"
        }
      ],
      "stateMutability": "view",
      "type": "function"
    },
    {
      "inputs": [],
      "name": "symbol",
      "outputs": [
        {
          "internalType": "string",
          "name": "",
          "type": "string"
        }
      ],
      "stateMutability": "view",
      "type": "function"
    },
    {
      "inputs": [
        {
          "internalType": "uint256",
          "name": "tokenId",
          "type": "uint256"
        }
      ],
      "name": "tokenURI",
      "outputs": [
        {
          "internalType": "string",
          "name": "",
          "type": "string"
        }
      ],
      "stateMutability": "view",
      "type": "function"
    },
    {
      "inputs": [
        {
          "internalType": "address",
          "name": "from",
          "type": "address"
        },
        {
          "internalType": "address",
          "name": "to",
          "type": "address"
        },
        {
          "internalType": "uint256",
          "name": "tokenId",
          "type": "uint256"
        }
      ],
      "name": "transferFrom",
      "outputs": [],
      "stateMutability": "nonpayable",
      "type": "function"
    },
    {
      "inputs": [
        {
          "internalType": "address",
          "name": "newOwner",
          "type": "address"
        }
      ],
      "name": "transferOwnership",
      "outputs": [],
      "stateMutability": "nonpayable",
      "type": "function"
    },
    {
      "inputs": [
        {
          "internalType": "string",
          "name": "_email",
          "type": "string"
        }
      ],
      "name": "updateEmail",
      "outputs": [],
      "stateMutability": "nonpayable",
      "type": "function"
    },
    {
      "inputs": [
        {
          "internalType": "address",
          "name": "",
          "type": "address"
        }
      ],
      "name": "userData",
      "outputs": [
        {
          "internalType": "string",
          "name": "name",
          "type": "string"
        },
        {
          "internalType": "string",
          "name": "email",
          "type": "string"
        },
        {
          "internalType": "string",
          "name": "profile_url",
          "type": "string"
        }
      ],
      "stateMutability": "view",
      "type": "function"
    }
  ],
  "bytecode": "0x60806040523480156200001157600080fd5b506040518060400160405280600f81526020017f506f4f20436572746966696361746500000000000000000000000000000000008152506040518060400160405280600381526020017f506f4f000000000000000000000000000000000000000000000000000000000081525081600090816200008f919062000412565b508060019081620000a1919062000412565b505050620000c4620000b8620000ca60201b60201c565b620000d260201b60201c565b620004f9565b600033905090565b6000600760009054906101000a900473ffffffffffffffffffffffffffffffffffffffff16905081600760006101000a81548173ffffffffffffffffffffffffffffffffffffffff021916908373ffffffffffffffffffffffffffffffffffffffff1602179055508173ffffffffffffffffffffffffffffffffffffffff168173ffffffffffffffffffffffffffffffffffffffff167f8be0079c531659141344cd1fd0a4f28419497f9722a3daafe3b4186f6b6457e060405160405180910390a35050565b600081519050919050565b7f4e487b7100000000000000000000000000000000000000000000000000000000600052604160045260246000fd5b7f4e487b7100000000000000000000000000000000000000000000000000000000600052602260045260246000fd5b600060028204905060018216806200021a57607f821691505b60208210810362000230576200022f620001d2565b5b50919050565b60008190508160005260206000209050919050565b60006020601f8301049050919050565b600082821b905092915050565b6000600883026200029a7fffffffffffffffffffffffffffffffffffffffffffffffffffffffffffffffff826200025b565b620002a686836200025b565b95508019841693508086168417925050509392505050565b6000819050919050565b6000819050919050565b6000620002f3620002ed620002e784620002be565b620002c8565b620002be565b9050919050565b6000819050919050565b6200030f83620002d2565b620003276200031e82620002fa565b84845462000268565b825550505050565b600090565b6200033e6200032f565b6200034b81848462000304565b505050565b5b8181101562000373576200036760008262000334565b60018101905062000351565b5050565b601f821115620003c2576200038c8162000236565b62000397846200024b565b81016020851015620003a7578190505b620003bf620003b6856200024b565b83018262000350565b50505b505050565b600082821c905092915050565b6000620003e760001984600802620003c7565b1980831691505092915050565b6000620004028383620003d4565b9150826002028217905092915050565b6200041d8262000198565b67ffffffffffffffff811115620004395762000438620001a3565b5b62000445825462000201565b6200045282828562000377565b600060209050601f8311600181146200048a576000841562000475578287015190505b620004818582620003f4565b865550620004f1565b601f1984166200049a8662000236565b60005b82811015620004c4578489015182556001820191506020850194506020810190506200049d565b86831015620004e45784890151620004e0601f891682620003d4565b8355505b6001600288020188555050505b505050505050565b61402780620005096000396000f3fe608060405234801561001057600080fd5b50600436106101a95760003560e01c80638da5cb5b116100f9578063c891091311610097578063e46dd23511610071578063e46dd235146104b6578063e985e9c5146104d2578063f06099af14610502578063f2fde38b1461051e576101a9565b8063c891091314610438578063d004b0361461046a578063d637dcfa1461049a576101a9565b8063a22cb465116100d3578063a22cb465146103b4578063b88d4fde146103d0578063c772745a146103ec578063c87b56dd14610408576101a9565b80638da5cb5b1461035c578063911a2be71461037a57806395d89b4114610396576101a9565b806342842e0e1161016657806370a082311161014057806370a08231146102e8578063715018a614610318578063791d22f714610322578063832880e71461033e576101a9565b806342842e0e1461028057806342966c681461029c5780636352211e146102b8576101a9565b806301ffc9a7146101ae57806306fdde03146101de578063081812fc146101fc578063095ea7b31461022c57806320c5429b1461024857806323b872dd14610264575b600080fd5b6101c860048036038101906101c39190612937565b61053a565b6040516101d5919061297f565b60405180910390f35b6101e661061c565b6040516101f39190612a2a565b60405180910390f35b61021660048036038101906102119190612a82565b6106ae565b6040516102239190612af0565b60405180910390f35b61024660048036038101906102419190612b37565b6106f4565b005b610262600480360381019061025d9190612a82565b61080b565b005b61027e60048036038101906102799190612b77565b61081f565b005b61029a60048036038101906102959190612b77565b61087f565b005b6102b660048036038101906102b19190612a82565b61089f565b005b6102d260048036038101906102cd9190612a82565b610921565b6040516102df9190612af0565b60405180910390f35b61030260048036038101906102fd9190612bca565b6109a7565b60405161030f9190612c06565b60405180910390f35b610320610a5e565b005b61033c60048036038101906103379190612d82565b610a72565b005b610346610b47565b6040516103539190612e99565b60405180910390f35b610364610d54565b6040516103719190612af0565b60405180910390f35b610394600480360381019061038f9190612ebb565b610d7e565b005b61039e610dd1565b6040516103ab9190612a2a565b60405180910390f35b6103ce60048036038101906103c99190612f04565b610e63565b005b6103ea60048036038101906103e59190612fe5565b610e79565b005b61040660048036038101906104019190613068565b610edb565b005b610422600480360381019061041d9190612a82565b610ef4565b60405161042f9190612a2a565b60405180910390f35b610452600480360381019061044d9190612bca565b610f06565b604051610461939291906130d7565b60405180910390f35b610484600480360381019061047f9190612bca565b6110c8565b6040516104919190613231565b60405180910390f35b6104b460048036038101906104af9190613253565b611202565b005b6104d060048036038101906104cb9190612ebb565b6112a6565b005b6104ec60048036038101906104e791906132fa565b6112f9565b6040516104f9919061297f565b60405180910390f35b61051c60048036038101906105179190612ebb565b61138d565b005b61053860048036038101906105339190612bca565b6113e0565b005b60007f80ac58cd000000000000000000000000000000000000000000000000000000007bffffffffffffffffffffffffffffffffffffffffffffffffffffffff1916827bffffffffffffffffffffffffffffffffffffffffffffffffffffffff1916148061060557507f5b5e139f000000000000000000000000000000000000000000000000000000007bffffffffffffffffffffffffffffffffffffffffffffffffffffffff1916827bffffffffffffffffffffffffffffffffffffffffffffffffffffffff1916145b80610615575061061482611463565b5b9050919050565b60606000805461062b90613369565b80601f016020809104026020016040519081016040528092919081815260200182805461065790613369565b80156106a45780601f10610679576101008083540402835291602001916106a4565b820191906000526020600020905b81548152906001019060200180831161068757829003601f168201915b5050505050905090565b60006106b9826114cd565b6004600083815260200190815260200160002060009054906101000a900473ffffffffffffffffffffffffffffffffffffffff169050919050565b60006106ff82610921565b90508073ffffffffffffffffffffffffffffffffffffffff168373ffffffffffffffffffffffffffffffffffffffff160361076f576040517f08c379a00000000000000000000000000000000000000000000000000000000081526004016107669061340c565b60405180910390fd5b8073ffffffffffffffffffffffffffffffffffffffff1661078e611518565b73ffffffffffffffffffffffffffffffffffffffff1614806107bd57506107bc816107b7611518565b6112f9565b5b6107fc576040517f08c379a00000000000000000000000000000000000000000000000000000000081526004016107f39061349e565b60405180910390fd5b6108068383611520565b505050565b6108136115d9565b61081c81611657565b50565b61083061082a611518565b82611663565b61086f576040517f08c379a000000000000000000000000000000000000000000000000000000000815260040161086690613530565b60405180910390fd5b61087a8383836116f8565b505050565b61089a83838360405180602001604052806000815250610e79565b505050565b3373ffffffffffffffffffffffffffffffffffffffff166108bf82610921565b73ffffffffffffffffffffffffffffffffffffffff1614610915576040517f08c379a000000000000000000000000000000000000000000000000000000000815260040161090c906135c2565b60405180910390fd5b61091e81611657565b50565b60008061092d836119f1565b9050600073ffffffffffffffffffffffffffffffffffffffff168173ffffffffffffffffffffffffffffffffffffffff160361099e576040517f08c379a00000000000000000000000000000000000000000000000000000000081526004016109959061362e565b60405180910390fd5b80915050919050565b60008073ffffffffffffffffffffffffffffffffffffffff168273ffffffffffffffffffffffffffffffffffffffff1603610a17576040517f08c379a0000000000000000000000000000000000000000000000000000000008152600401610a0e906136c0565b60405180910390fd5b600360008373ffffffffffffffffffffffffffffffffffffffff1673ffffffffffffffffffffffffffffffffffffffff168152602001908152602001600020549050919050565b610a666115d9565b610a706000611a2e565b565b6000610a7e6008611af4565b9050610a8a6008611b02565b6001151582151503610aa257610aa1848483610edb565b5b600960008573ffffffffffffffffffffffffffffffffffffffff1673ffffffffffffffffffffffffffffffffffffffff1681526020019081526020016000206040518060400160405280838152602001858152509080600181540180825580915050600190039060005260206000209060020201600090919091909150600082015181600001556020820151816001019081610b3e919061388c565b50505050505050565b610b4f61284d565b600a60003373ffffffffffffffffffffffffffffffffffffffff1673ffffffffffffffffffffffffffffffffffffffff168152602001908152602001600020604051806060016040529081600082018054610ba990613369565b80601f0160208091040260200160405190810160405280929190818152602001828054610bd590613369565b8015610c225780601f10610bf757610100808354040283529160200191610c22565b820191906000526020600020905b815481529060010190602001808311610c0557829003601f168201915b50505050508152602001600182018054610c3b90613369565b80601f0160208091040260200160405190810160405280929190818152602001828054610c6790613369565b8015610cb45780601f10610c8957610100808354040283529160200191610cb4565b820191906000526020600020905b815481529060010190602001808311610c9757829003601f168201915b50505050508152602001600282018054610ccd90613369565b80601f0160208091040260200160405190810160405280929190818152602001828054610cf990613369565b8015610d465780601f10610d1b57610100808354040283529160200191610d46565b820191906000526020600020905b815481529060010190602001808311610d2957829003601f168201915b505050505081525050905090565b6000600760009054906101000a900473ffffffffffffffffffffffffffffffffffffffff16905090565b80600a60003373ffffffffffffffffffffffffffffffffffffffff1673ffffffffffffffffffffffffffffffffffffffff1681526020019081526020016000206000019081610dcd919061388c565b5050565b606060018054610de090613369565b80601f0160208091040260200160405190810160405280929190818152602001828054610e0c90613369565b8015610e595780601f10610e2e57610100808354040283529160200191610e59565b820191906000526020600020905b815481529060010190602001808311610e3c57829003601f168201915b5050505050905090565b610e75610e6e611518565b8383611b18565b5050565b610e8a610e84611518565b83611663565b610ec9576040517f08c379a0000000000000000000000000000000000000000000000000000000008152600401610ec090613530565b60405180910390fd5b610ed584848484611c84565b50505050565b610ee58382611ce0565b610eef8183611cfe565b505050565b6060610eff82611d6b565b9050919050565b600a602052806000526040600020600091509050806000018054610f2990613369565b80601f0160208091040260200160405190810160405280929190818152602001828054610f5590613369565b8015610fa25780601f10610f7757610100808354040283529160200191610fa2565b820191906000526020600020905b815481529060010190602001808311610f8557829003601f168201915b505050505090806001018054610fb790613369565b80601f0160208091040260200160405190810160405280929190818152602001828054610fe390613369565b80156110305780601f1061100557610100808354040283529160200191611030565b820191906000526020600020905b81548152906001019060200180831161101357829003601f168201915b50505050509080600201805461104590613369565b80601f016020809104026020016040519081016040528092919081815260200182805461107190613369565b80156110be5780601f10611093576101008083540402835291602001916110be565b820191906000526020600020905b8154815290600101906020018083116110a157829003601f168201915b5050505050905083565b6060600960008373ffffffffffffffffffffffffffffffffffffffff1673ffffffffffffffffffffffffffffffffffffffff168152602001908152602001600020805480602002602001604051908101604052809291908181526020016000905b828210156111f757838290600052602060002090600202016040518060400160405290816000820154815260200160018201805461116690613369565b80601f016020809104026020016040519081016040528092919081815260200182805461119290613369565b80156111df5780601f106111b4576101008083540402835291602001916111df565b820191906000526020600020905b8154815290600101906020018083116111c257829003601f168201915b50505050508152505081526020019060010190611129565b505050509050919050565b604051806060016040528084815260200183815260200182815250600a60003373ffffffffffffffffffffffffffffffffffffffff1673ffffffffffffffffffffffffffffffffffffffff1681526020019081526020016000206000820151816000019081611271919061388c565b506020820151816001019081611287919061388c565b50604082015181600201908161129d919061388c565b50905050505050565b80600a60003373ffffffffffffffffffffffffffffffffffffffff1673ffffffffffffffffffffffffffffffffffffffff16815260200190815260200160002060020190816112f5919061388c565b5050565b6000600560008473ffffffffffffffffffffffffffffffffffffffff1673ffffffffffffffffffffffffffffffffffffffff16815260200190815260200160002060008373ffffffffffffffffffffffffffffffffffffffff1673ffffffffffffffffffffffffffffffffffffffff16815260200190815260200160002060009054906101000a900460ff16905092915050565b80600a60003373ffffffffffffffffffffffffffffffffffffffff1673ffffffffffffffffffffffffffffffffffffffff16815260200190815260200160002060010190816113dc919061388c565b5050565b6113e86115d9565b600073ffffffffffffffffffffffffffffffffffffffff168173ffffffffffffffffffffffffffffffffffffffff1603611457576040517f08c379a000000000000000000000000000000000000000000000000000000000815260040161144e906139d0565b60405180910390fd5b61146081611a2e565b50565b60007f01ffc9a7000000000000000000000000000000000000000000000000000000007bffffffffffffffffffffffffffffffffffffffffffffffffffffffff1916827bffffffffffffffffffffffffffffffffffffffffffffffffffffffff1916149050919050565b6114d681611e7d565b611515576040517f08c379a000000000000000000000000000000000000000000000000000000000815260040161150c9061362e565b60405180910390fd5b50565b600033905090565b816004600083815260200190815260200160002060006101000a81548173ffffffffffffffffffffffffffffffffffffffff021916908373ffffffffffffffffffffffffffffffffffffffff160217905550808273ffffffffffffffffffffffffffffffffffffffff1661159383610921565b73ffffffffffffffffffffffffffffffffffffffff167f8c5be1e5ebec7d5bd14f71427d1e84f3dd0314c0f7b2291e5b200ac8c7c3b92560405160405180910390a45050565b6115e1611518565b73ffffffffffffffffffffffffffffffffffffffff166115ff610d54565b73ffffffffffffffffffffffffffffffffffffffff1614611655576040517f08c379a000000000000000000000000000000000000000000000000000000000815260040161164c90613a3c565b60405180910390fd5b565b61166081611ebe565b50565b60008061166f83610921565b90508073ffffffffffffffffffffffffffffffffffffffff168473ffffffffffffffffffffffffffffffffffffffff1614806116b157506116b081856112f9565b5b806116ef57508373ffffffffffffffffffffffffffffffffffffffff166116d7846106ae565b73ffffffffffffffffffffffffffffffffffffffff16145b91505092915050565b8273ffffffffffffffffffffffffffffffffffffffff1661171882610921565b73ffffffffffffffffffffffffffffffffffffffff161461176e576040517f08c379a000000000000000000000000000000000000000000000000000000000815260040161176590613ace565b60405180910390fd5b600073ffffffffffffffffffffffffffffffffffffffff168273ffffffffffffffffffffffffffffffffffffffff16036117dd576040517f08c379a00000000000000000000000000000000000000000000000000000000081526004016117d490613b60565b60405180910390fd5b6117ea8383836001611f11565b8273ffffffffffffffffffffffffffffffffffffffff1661180a82610921565b73ffffffffffffffffffffffffffffffffffffffff1614611860576040517f08c379a000000000000000000000000000000000000000000000000000000000815260040161185790613ace565b60405180910390fd5b6004600082815260200190815260200160002060006101000a81549073ffffffffffffffffffffffffffffffffffffffff02191690556001600360008573ffffffffffffffffffffffffffffffffffffffff1673ffffffffffffffffffffffffffffffffffffffff168152602001908152602001600020600082825403925050819055506001600360008473ffffffffffffffffffffffffffffffffffffffff1673ffffffffffffffffffffffffffffffffffffffff16815260200190815260200160002060008282540192505081905550816002600083815260200190815260200160002060006101000a81548173ffffffffffffffffffffffffffffffffffffffff021916908373ffffffffffffffffffffffffffffffffffffffff160217905550808273ffffffffffffffffffffffffffffffffffffffff168473ffffffffffffffffffffffffffffffffffffffff167fddf252ad1be2c89b69c2b068fc378daa952ba7f163c4a11628f55a4df523b3ef60405160405180910390a46119ec8383836001612037565b505050565b60006002600083815260200190815260200160002060009054906101000a900473ffffffffffffffffffffffffffffffffffffffff169050919050565b6000600760009054906101000a900473ffffffffffffffffffffffffffffffffffffffff16905081600760006101000a81548173ffffffffffffffffffffffffffffffffffffffff021916908373ffffffffffffffffffffffffffffffffffffffff1602179055508173ffffffffffffffffffffffffffffffffffffffff168173ffffffffffffffffffffffffffffffffffffffff167f8be0079c531659141344cd1fd0a4f28419497f9722a3daafe3b4186f6b6457e060405160405180910390a35050565b600081600001549050919050565b6001816000016000828254019250508190555050565b8173ffffffffffffffffffffffffffffffffffffffff168373ffffffffffffffffffffffffffffffffffffffff1603611b86576040517f08c379a0000000000000000000000000000000000000000000000000000000008152600401611b7d90613bcc565b60405180910390fd5b80600560008573ffffffffffffffffffffffffffffffffffffffff1673ffffffffffffffffffffffffffffffffffffffff16815260200190815260200160002060008473ffffffffffffffffffffffffffffffffffffffff1673ffffffffffffffffffffffffffffffffffffffff16815260200190815260200160002060006101000a81548160ff0219169083151502179055508173ffffffffffffffffffffffffffffffffffffffff168373ffffffffffffffffffffffffffffffffffffffff167f17307eab39ab6107e8899845ad3d59bd9653f200f220920489ca2b5937696c3183604051611c77919061297f565b60405180910390a3505050565b611c8f8484846116f8565b611c9b8484848461203d565b611cda576040517f08c379a0000000000000000000000000000000000000000000000000000000008152600401611cd190613c5e565b60405180910390fd5b50505050565b611cfa8282604051806020016040528060008152506121c4565b5050565b611d0782611e7d565b611d46576040517f08c379a0000000000000000000000000000000000000000000000000000000008152600401611d3d90613cf0565b60405180910390fd5b80600660008481526020019081526020016000209081611d66919061388c565b505050565b6060611d76826114cd565b6000600660008481526020019081526020016000208054611d9690613369565b80601f0160208091040260200160405190810160405280929190818152602001828054611dc290613369565b8015611e0f5780601f10611de457610100808354040283529160200191611e0f565b820191906000526020600020905b815481529060010190602001808311611df257829003601f168201915b505050505090506000611e2061221f565b90506000815103611e35578192505050611e78565b600082511115611e6a578082604051602001611e52929190613d4c565b60405160208183030381529060405292505050611e78565b611e7384612236565b925050505b919050565b60008073ffffffffffffffffffffffffffffffffffffffff16611e9f836119f1565b73ffffffffffffffffffffffffffffffffffffffff1614159050919050565b611ec78161229e565b6000600660008381526020019081526020016000208054611ee790613369565b905014611f0e57600660008281526020019081526020016000206000611f0d919061286e565b5b50565b600181111561203157600073ffffffffffffffffffffffffffffffffffffffff168473ffffffffffffffffffffffffffffffffffffffff1614611fa55780600360008673ffffffffffffffffffffffffffffffffffffffff1673ffffffffffffffffffffffffffffffffffffffff1681526020019081526020016000206000828254611f9d9190613d9f565b925050819055505b600073ffffffffffffffffffffffffffffffffffffffff168373ffffffffffffffffffffffffffffffffffffffff16146120305780600360008573ffffffffffffffffffffffffffffffffffffffff1673ffffffffffffffffffffffffffffffffffffffff16815260200190815260200160002060008282546120289190613dd3565b925050819055505b5b50505050565b50505050565b600061205e8473ffffffffffffffffffffffffffffffffffffffff166123ec565b156121b7578373ffffffffffffffffffffffffffffffffffffffff1663150b7a02612087611518565b8786866040518563ffffffff1660e01b81526004016120a99493929190613e5c565b6020604051808303816000875af19250505080156120e557506040513d601f19601f820116820180604052508101906120e29190613ebd565b60015b612167573d8060008114612115576040519150601f19603f3d011682016040523d82523d6000602084013e61211a565b606091505b50600081510361215f576040517f08c379a000000000000000000000000000000000000000000000000000000000815260040161215690613c5e565b60405180910390fd5b805181602001fd5b63150b7a0260e01b7bffffffffffffffffffffffffffffffffffffffffffffffffffffffff1916817bffffffffffffffffffffffffffffffffffffffffffffffffffffffff1916149150506121bc565b600190505b949350505050565b6121ce838361240f565b6121db600084848461203d565b61221a576040517f08c379a000000000000000000000000000000000000000000000000000000000815260040161221190613c5e565b60405180910390fd5b505050565b606060405180602001604052806000815250905090565b6060612241826114cd565b600061224b61221f565b9050600081511161226b5760405180602001604052806000815250612296565b806122758461262c565b604051602001612286929190613d4c565b6040516020818303038152906040525b915050919050565b60006122a982610921565b90506122b9816000846001611f11565b6122c282610921565b90506004600083815260200190815260200160002060006101000a81549073ffffffffffffffffffffffffffffffffffffffff02191690556001600360008373ffffffffffffffffffffffffffffffffffffffff1673ffffffffffffffffffffffffffffffffffffffff168152602001908152602001600020600082825403925050819055506002600083815260200190815260200160002060006101000a81549073ffffffffffffffffffffffffffffffffffffffff021916905581600073ffffffffffffffffffffffffffffffffffffffff168273ffffffffffffffffffffffffffffffffffffffff167fddf252ad1be2c89b69c2b068fc378daa952ba7f163c4a11628f55a4df523b3ef60405160405180910390a46123e8816000846001612037565b5050565b6000808273ffffffffffffffffffffffffffffffffffffffff163b119050919050565b600073ffffffffffffffffffffffffffffffffffffffff168273ffffffffffffffffffffffffffffffffffffffff160361247e576040517f08c379a000000000000000000000000000000000000000000000000000000000815260040161247590613f36565b60405180910390fd5b61248781611e7d565b156124c7576040517f08c379a00000000000000000000000000000000000000000000000000000000081526004016124be90613fa2565b60405180910390fd5b6124d5600083836001611f11565b6124de81611e7d565b1561251e576040517f08c379a000000000000000000000000000000000000000000000000000000000815260040161251590613fa2565b60405180910390fd5b6001600360008473ffffffffffffffffffffffffffffffffffffffff1673ffffffffffffffffffffffffffffffffffffffff16815260200190815260200160002060008282540192505081905550816002600083815260200190815260200160002060006101000a81548173ffffffffffffffffffffffffffffffffffffffff021916908373ffffffffffffffffffffffffffffffffffffffff160217905550808273ffffffffffffffffffffffffffffffffffffffff16600073ffffffffffffffffffffffffffffffffffffffff167fddf252ad1be2c89b69c2b068fc378daa952ba7f163c4a11628f55a4df523b3ef60405160405180910390a4612628600083836001612037565b5050565b60606000600161263b846126fa565b01905060008167ffffffffffffffff81111561265a57612659612c2b565b5b6040519080825280601f01601f19166020018201604052801561268c5781602001600182028036833780820191505090505b509050600082602001820190505b6001156126ef578080600190039150507f3031323334353637383961626364656600000000000000000000000000000000600a86061a8153600a85816126e3576126e2613fc2565b5b0494506000850361269a575b819350505050919050565b600080600090507a184f03e93ff9f4daa797ed6e38ed64bf6a1f0100000000000000008310612758577a184f03e93ff9f4daa797ed6e38ed64bf6a1f010000000000000000838161274e5761274d613fc2565b5b0492506040810190505b6d04ee2d6d415b85acef81000000008310612795576d04ee2d6d415b85acef8100000000838161278b5761278a613fc2565b5b0492506020810190505b662386f26fc1000083106127c457662386f26fc1000083816127ba576127b9613fc2565b5b0492506010810190505b6305f5e10083106127ed576305f5e10083816127e3576127e2613fc2565b5b0492506008810190505b612710831061281257612710838161280857612807613fc2565b5b0492506004810190505b60648310612835576064838161282b5761282a613fc2565b5b0492506002810190505b600a8310612844576001810190505b80915050919050565b60405180606001604052806060815260200160608152602001606081525090565b50805461287a90613369565b6000825580601f1061288c57506128ab565b601f0160209004906000526020600020908101906128aa91906128ae565b5b50565b5b808211156128c75760008160009055506001016128af565b5090565b6000604051905090565b600080fd5b600080fd5b60007fffffffff0000000000000000000000000000000000000000000000000000000082169050919050565b612914816128df565b811461291f57600080fd5b50565b6000813590506129318161290b565b92915050565b60006020828403121561294d5761294c6128d5565b5b600061295b84828501612922565b91505092915050565b60008115159050919050565b61297981612964565b82525050565b60006020820190506129946000830184612970565b92915050565b600081519050919050565b600082825260208201905092915050565b60005b838110156129d45780820151818401526020810190506129b9565b60008484015250505050565b6000601f19601f8301169050919050565b60006129fc8261299a565b612a0681856129a5565b9350612a168185602086016129b6565b612a1f816129e0565b840191505092915050565b60006020820190508181036000830152612a4481846129f1565b905092915050565b6000819050919050565b612a5f81612a4c565b8114612a6a57600080fd5b50565b600081359050612a7c81612a56565b92915050565b600060208284031215612a9857612a976128d5565b5b6000612aa684828501612a6d565b91505092915050565b600073ffffffffffffffffffffffffffffffffffffffff82169050919050565b6000612ada82612aaf565b9050919050565b612aea81612acf565b82525050565b6000602082019050612b056000830184612ae1565b92915050565b612b1481612acf565b8114612b1f57600080fd5b50565b600081359050612b3181612b0b565b92915050565b60008060408385031215612b4e57612b4d6128d5565b5b6000612b5c85828601612b22565b9250506020612b6d85828601612a6d565b9150509250929050565b600080600060608486031215612b9057612b8f6128d5565b5b6000612b9e86828701612b22565b9350506020612baf86828701612b22565b9250506040612bc086828701612a6d565b9150509250925092565b600060208284031215612be057612bdf6128d5565b5b6000612bee84828501612b22565b91505092915050565b612c0081612a4c565b82525050565b6000602082019050612c1b6000830184612bf7565b92915050565b600080fd5b600080fd5b7f4e487b7100000000000000000000000000000000000000000000000000000000600052604160045260246000fd5b612c63826129e0565b810181811067ffffffffffffffff82111715612c8257612c81612c2b565b5b80604052505050565b6000612c956128cb565b9050612ca18282612c5a565b919050565b600067ffffffffffffffff821115612cc157612cc0612c2b565b5b612cca826129e0565b9050602081019050919050565b82818337600083830152505050565b6000612cf9612cf484612ca6565b612c8b565b905082815260208101848484011115612d1557612d14612c26565b5b612d20848285612cd7565b509392505050565b600082601f830112612d3d57612d3c612c21565b5b8135612d4d848260208601612ce6565b91505092915050565b612d5f81612964565b8114612d6a57600080fd5b50565b600081359050612d7c81612d56565b92915050565b600080600060608486031215612d9b57612d9a6128d5565b5b6000612da986828701612b22565b935050602084013567ffffffffffffffff811115612dca57612dc96128da565b5b612dd686828701612d28565b9250506040612de786828701612d6d565b9150509250925092565b600082825260208201905092915050565b6000612e0d8261299a565b612e178185612df1565b9350612e278185602086016129b6565b612e30816129e0565b840191505092915050565b60006060830160008301518482036000860152612e588282612e02565b91505060208301518482036020860152612e728282612e02565b91505060408301518482036040860152612e8c8282612e02565b9150508091505092915050565b60006020820190508181036000830152612eb38184612e3b565b905092915050565b600060208284031215612ed157612ed06128d5565b5b600082013567ffffffffffffffff811115612eef57612eee6128da565b5b612efb84828501612d28565b91505092915050565b60008060408385031215612f1b57612f1a6128d5565b5b6000612f2985828601612b22565b9250506020612f3a85828601612d6d565b9150509250929050565b600067ffffffffffffffff821115612f5f57612f5e612c2b565b5b612f68826129e0565b9050602081019050919050565b6000612f88612f8384612f44565b612c8b565b905082815260208101848484011115612fa457612fa3612c26565b5b612faf848285612cd7565b509392505050565b600082601f830112612fcc57612fcb612c21565b5b8135612fdc848260208601612f75565b91505092915050565b60008060008060808587031215612fff57612ffe6128d5565b5b600061300d87828801612b22565b945050602061301e87828801612b22565b935050604061302f87828801612a6d565b925050606085013567ffffffffffffffff8111156130505761304f6128da565b5b61305c87828801612fb7565b91505092959194509250565b600080600060608486031215613081576130806128d5565b5b600061308f86828701612b22565b935050602084013567ffffffffffffffff8111156130b0576130af6128da565b5b6130bc86828701612d28565b92505060406130cd86828701612a6d565b9150509250925092565b600060608201905081810360008301526130f181866129f1565b9050818103602083015261310581856129f1565b9050818103604083015261311981846129f1565b9050949350505050565b600081519050919050565b600082825260208201905092915050565b6000819050602082019050919050565b61315881612a4c565b82525050565b6000604083016000830151613176600086018261314f565b506020830151848203602086015261318e8282612e02565b9150508091505092915050565b60006131a7838361315e565b905092915050565b6000602082019050919050565b60006131c782613123565b6131d1818561312e565b9350836020820285016131e38561313f565b8060005b8581101561321f5784840389528151613200858261319b565b945061320b836131af565b925060208a019950506001810190506131e7565b50829750879550505050505092915050565b6000602082019050818103600083015261324b81846131bc565b905092915050565b60008060006060848603121561326c5761326b6128d5565b5b600084013567ffffffffffffffff81111561328a576132896128da565b5b61329686828701612d28565b935050602084013567ffffffffffffffff8111156132b7576132b66128da565b5b6132c386828701612d28565b925050604084013567ffffffffffffffff8111156132e4576132e36128da565b5b6132f086828701612d28565b9150509250925092565b60008060408385031215613311576133106128d5565b5b600061331f85828601612b22565b925050602061333085828601612b22565b9150509250929050565b7f4e487b7100000000000000000000000000000000000000000000000000000000600052602260045260246000fd5b6000600282049050600182168061338157607f821691505b6020821081036133945761339361333a565b5b50919050565b7f4552433732313a20617070726f76616c20746f2063757272656e74206f776e6560008201527f7200000000000000000000000000000000000000000000000000000000000000602082015250565b60006133f66021836129a5565b91506134018261339a565b604082019050919050565b60006020820190508181036000830152613425816133e9565b9050919050565b7f4552433732313a20617070726f76652063616c6c6572206973206e6f7420746f60008201527f6b656e206f776e6572206f7220617070726f76656420666f7220616c6c000000602082015250565b6000613488603d836129a5565b91506134938261342c565b604082019050919050565b600060208201905081810360008301526134b78161347b565b9050919050565b7f4552433732313a2063616c6c6572206973206e6f7420746f6b656e206f776e6560008201527f72206f7220617070726f76656400000000000000000000000000000000000000602082015250565b600061351a602d836129a5565b9150613525826134be565b604082019050919050565b600060208201905081810360008301526135498161350d565b9050919050565b7f4f6e6c79206f776e6572206f662074686520746f6b656e2063616e206275726e60008201527f2069740000000000000000000000000000000000000000000000000000000000602082015250565b60006135ac6023836129a5565b91506135b782613550565b604082019050919050565b600060208201905081810360008301526135db8161359f565b9050919050565b7f4552433732313a20696e76616c696420746f6b656e2049440000000000000000600082015250565b60006136186018836129a5565b9150613623826135e2565b602082019050919050565b600060208201905081810360008301526136478161360b565b9050919050565b7f4552433732313a2061646472657373207a65726f206973206e6f74206120766160008201527f6c6964206f776e65720000000000000000000000000000000000000000000000602082015250565b60006136aa6029836129a5565b91506136b58261364e565b604082019050919050565b600060208201905081810360008301526136d98161369d565b9050919050565b60008190508160005260206000209050919050565b60006020601f8301049050919050565b600082821b905092915050565b6000600883026137427fffffffffffffffffffffffffffffffffffffffffffffffffffffffffffffffff82613705565b61374c8683613705565b95508019841693508086168417925050509392505050565b6000819050919050565b600061378961378461377f84612a4c565b613764565b612a4c565b9050919050565b6000819050919050565b6137a38361376e565b6137b76137af82613790565b848454613712565b825550505050565b600090565b6137cc6137bf565b6137d781848461379a565b505050565b5b818110156137fb576137f06000826137c4565b6001810190506137dd565b5050565b601f82111561384057613811816136e0565b61381a846136f5565b81016020851015613829578190505b61383d613835856136f5565b8301826137dc565b50505b505050565b600082821c905092915050565b600061386360001984600802613845565b1980831691505092915050565b600061387c8383613852565b9150826002028217905092915050565b6138958261299a565b67ffffffffffffffff8111156138ae576138ad612c2b565b5b6138b88254613369565b6138c38282856137ff565b600060209050601f8311600181146138f657600084156138e4578287015190505b6138ee8582613870565b865550613956565b601f198416613904866136e0565b60005b8281101561392c57848901518255600182019150602085019450602081019050613907565b868310156139495784890151613945601f891682613852565b8355505b6001600288020188555050505b505050505050565b7f4f776e61626c653a206e6577206f776e657220697320746865207a65726f206160008201527f6464726573730000000000000000000000000000000000000000000000000000602082015250565b60006139ba6026836129a5565b91506139c58261395e565b604082019050919050565b600060208201905081810360008301526139e9816139ad565b9050919050565b7f4f776e61626c653a2063616c6c6572206973206e6f7420746865206f776e6572600082015250565b6000613a266020836129a5565b9150613a31826139f0565b602082019050919050565b60006020820190508181036000830152613a5581613a19565b9050919050565b7f4552433732313a207472616e736665722066726f6d20696e636f72726563742060008201527f6f776e6572000000000000000000000000000000000000000000000000000000602082015250565b6000613ab86025836129a5565b9150613ac382613a5c565b604082019050919050565b60006020820190508181036000830152613ae781613aab565b9050919050565b7f4552433732313a207472616e7366657220746f20746865207a65726f2061646460008201527f7265737300000000000000000000000000000000000000000000000000000000602082015250565b6000613b4a6024836129a5565b9150613b5582613aee565b604082019050919050565b60006020820190508181036000830152613b7981613b3d565b9050919050565b7f4552433732313a20617070726f766520746f2063616c6c657200000000000000600082015250565b6000613bb66019836129a5565b9150613bc182613b80565b602082019050919050565b60006020820190508181036000830152613be581613ba9565b9050919050565b7f4552433732313a207472616e7366657220746f206e6f6e20455243373231526560008201527f63656976657220696d706c656d656e7465720000000000000000000000000000602082015250565b6000613c486032836129a5565b9150613c5382613bec565b604082019050919050565b60006020820190508181036000830152613c7781613c3b565b9050919050565b7f45524337323155524953746f726167653a2055524920736574206f66206e6f6e60008201527f6578697374656e7420746f6b656e000000000000000000000000000000000000602082015250565b6000613cda602e836129a5565b9150613ce582613c7e565b604082019050919050565b60006020820190508181036000830152613d0981613ccd565b9050919050565b600081905092915050565b6000613d268261299a565b613d308185613d10565b9350613d408185602086016129b6565b80840191505092915050565b6000613d588285613d1b565b9150613d648284613d1b565b91508190509392505050565b7f4e487b7100000000000000000000000000000000000000000000000000000000600052601160045260246000fd5b6000613daa82612a4c565b9150613db583612a4c565b9250828203905081811115613dcd57613dcc613d70565b5b92915050565b6000613dde82612a4c565b9150613de983612a4c565b9250828201905080821115613e0157613e00613d70565b5b92915050565b600081519050919050565b600082825260208201905092915050565b6000613e2e82613e07565b613e388185613e12565b9350613e488185602086016129b6565b613e51816129e0565b840191505092915050565b6000608082019050613e716000830187612ae1565b613e7e6020830186612ae1565b613e8b6040830185612bf7565b8181036060830152613e9d8184613e23565b905095945050505050565b600081519050613eb78161290b565b92915050565b600060208284031215613ed357613ed26128d5565b5b6000613ee184828501613ea8565b91505092915050565b7f4552433732313a206d696e7420746f20746865207a65726f2061646472657373600082015250565b6000613f206020836129a5565b9150613f2b82613eea565b602082019050919050565b60006020820190508181036000830152613f4f81613f13565b9050919050565b7f4552433732313a20746f6b656e20616c7265616479206d696e74656400000000600082015250565b6000613f8c601c836129a5565b9150613f9782613f56565b602082019050919050565b60006020820190508181036000830152613fbb81613f7f565b9050919050565b7f4e487b7100000000000000000000000000000000000000000000000000000000600052601260045260246000fdfea264697066735822122084262e98ce3058a6f7bbb3106900deffcfc493129a1186a53bc42f0ac2dc39f464736f6c63430008110033",
  "linkReferences": {},
  "deployedLinkReferences": {}
}